{
  "contractName": "MyCV",
  "abi": [
    {
      "constant": false,
      "inputs": [],
      "name": "kill",
      "outputs": [],
      "payable": false,
      "stateMutability": "nonpayable",
      "type": "function"
    },
    {
      "constant": true,
      "inputs": [],
      "name": "elementsAreSet",
      "outputs": [
        {
          "name": "",
          "type": "bool"
        }
      ],
      "payable": false,
      "stateMutability": "view",
      "type": "function"
    },
    {
      "inputs": [],
      "payable": false,
      "stateMutability": "nonpayable",
      "type": "constructor"
    },
    {
      "anonymous": false,
      "inputs": [
        {
          "indexed": false,
          "name": "from",
          "type": "address"
        },
        {
          "indexed": false,
          "name": "oldAddress",
          "type": "string"
        },
        {
          "indexed": false,
          "name": "newAddress",
          "type": "string"
        }
      ],
      "name": "AddressChanged",
      "type": "event"
    },
    {
      "anonymous": false,
      "inputs": [
        {
          "indexed": false,
          "name": "from",
          "type": "address"
        },
        {
          "indexed": false,
          "name": "oldDescription",
          "type": "string"
        },
        {
          "indexed": false,
          "name": "newDescription",
          "type": "string"
        }
      ],
      "name": "DescriptionChanged",
      "type": "event"
    },
    {
      "anonymous": false,
      "inputs": [
        {
          "indexed": false,
          "name": "from",
          "type": "address"
        },
        {
          "indexed": false,
          "name": "oldTitle",
          "type": "string"
        },
        {
          "indexed": false,
          "name": "newTitle",
          "type": "string"
        }
      ],
      "name": "TitleChanged",
      "type": "event"
    },
    {
      "anonymous": false,
      "inputs": [
        {
          "indexed": false,
          "name": "from",
          "type": "address"
        },
        {
          "indexed": false,
          "name": "oldName",
          "type": "string"
        },
        {
          "indexed": false,
          "name": "oldEmail",
          "type": "string"
        },
        {
          "indexed": false,
          "name": "newName",
          "type": "string"
        },
        {
          "indexed": false,
          "name": "newEmail",
          "type": "string"
        }
      ],
      "name": "AuthorChanged",
      "type": "event"
    },
    {
      "anonymous": false,
      "inputs": [
        {
          "indexed": false,
          "name": "from",
          "type": "address"
        }
      ],
      "name": "SkillsChanged",
      "type": "event"
    },
    {
      "anonymous": false,
      "inputs": [
        {
          "indexed": false,
          "name": "from",
          "type": "address"
        }
      ],
      "name": "ProjectsChanged",
      "type": "event"
    },
    {
      "constant": true,
      "inputs": [],
      "name": "getAddress",
      "outputs": [
        {
          "name": "",
          "type": "string"
        }
      ],
      "payable": false,
      "stateMutability": "view",
      "type": "function"
    },
    {
      "constant": false,
      "inputs": [
        {
          "name": "addressUrl",
          "type": "string"
        }
      ],
      "name": "changeAddress",
      "outputs": [],
      "payable": false,
      "stateMutability": "nonpayable",
      "type": "function"
    },
    {
      "constant": true,
      "inputs": [],
      "name": "getDescription",
      "outputs": [
        {
          "name": "",
          "type": "string"
        }
      ],
      "payable": false,
      "stateMutability": "view",
      "type": "function"
    },
    {
      "constant": false,
      "inputs": [
        {
          "name": "description",
          "type": "string"
        }
      ],
      "name": "changeDescription",
      "outputs": [],
      "payable": false,
      "stateMutability": "nonpayable",
      "type": "function"
    },
    {
      "constant": true,
      "inputs": [],
      "name": "getTitle",
      "outputs": [
        {
          "name": "",
          "type": "string"
        }
      ],
      "payable": false,
      "stateMutability": "view",
      "type": "function"
    },
    {
      "constant": false,
      "inputs": [
        {
          "name": "title",
          "type": "string"
        }
      ],
      "name": "changeTitle",
      "outputs": [],
      "payable": false,
      "stateMutability": "nonpayable",
      "type": "function"
    },
    {
      "constant": true,
      "inputs": [],
      "name": "getAuthor",
      "outputs": [
        {
          "name": "",
          "type": "string"
        },
        {
          "name": "",
          "type": "string"
        }
      ],
      "payable": false,
      "stateMutability": "view",
      "type": "function"
    },
    {
      "constant": false,
      "inputs": [
        {
          "name": "name",
          "type": "string"
        },
        {
          "name": "email",
          "type": "string"
        }
      ],
      "name": "changeAuthor",
      "outputs": [],
      "payable": false,
      "stateMutability": "nonpayable",
      "type": "function"
    },
    {
      "constant": true,
      "inputs": [],
      "name": "getSkillsCount",
      "outputs": [
        {
          "name": "",
          "type": "uint256"
        }
      ],
      "payable": false,
      "stateMutability": "view",
      "type": "function"
    },
    {
      "constant": true,
      "inputs": [
        {
          "name": "index",
          "type": "uint256"
        }
      ],
      "name": "getSkill",
      "outputs": [
        {
          "name": "",
          "type": "string"
        },
        {
          "name": "",
          "type": "uint256"
        }
      ],
      "payable": false,
      "stateMutability": "view",
      "type": "function"
    },
    {
      "constant": false,
      "inputs": [
        {
          "name": "name",
          "type": "string"
        },
        {
          "name": "level",
          "type": "uint256"
        }
      ],
      "name": "addSkill",
      "outputs": [],
      "payable": false,
      "stateMutability": "nonpayable",
      "type": "function"
    },
    {
      "constant": false,
      "inputs": [
        {
          "name": "index",
          "type": "uint256"
        }
      ],
      "name": "removeSkill",
      "outputs": [],
      "payable": false,
      "stateMutability": "nonpayable",
      "type": "function"
    },
    {
      "constant": false,
      "inputs": [],
      "name": "removeAllSkills",
      "outputs": [],
      "payable": false,
      "stateMutability": "nonpayable",
      "type": "function"
    },
    {
      "constant": true,
      "inputs": [],
      "name": "getProjectsCount",
      "outputs": [
        {
          "name": "",
          "type": "uint256"
        }
      ],
      "payable": false,
      "stateMutability": "view",
      "type": "function"
    },
    {
      "constant": true,
      "inputs": [
        {
          "name": "index",
          "type": "uint256"
        }
      ],
      "name": "getProject",
      "outputs": [
        {
          "name": "",
          "type": "string"
        },
        {
          "name": "",
          "type": "string"
        }
      ],
      "payable": false,
      "stateMutability": "view",
      "type": "function"
    },
    {
      "constant": false,
      "inputs": [
        {
          "name": "name",
          "type": "string"
        },
        {
          "name": "description",
          "type": "string"
        }
      ],
      "name": "addProject",
      "outputs": [],
      "payable": false,
      "stateMutability": "nonpayable",
      "type": "function"
    },
    {
      "constant": false,
      "inputs": [
        {
          "name": "index",
          "type": "uint256"
        }
      ],
      "name": "removeProject",
      "outputs": [],
      "payable": false,
      "stateMutability": "nonpayable",
      "type": "function"
    },
    {
      "constant": false,
      "inputs": [],
      "name": "removeAllProjectes",
      "outputs": [],
      "payable": false,
      "stateMutability": "nonpayable",
      "type": "function"
    }
  ],
  "bytecode": "0x606060405234156200001057600080fd5b336000806101000a81548173ffffffffffffffffffffffffffffffffffffffff021916908373ffffffffffffffffffffffffffffffffffffffff1602179055506040805190810160405280600e81526020017f4a65727a79204c6173796b204356000000000000000000000000000000000000815250600190805190602001906200009d92919062000548565b5060a060405190810160405280606d81526020017f4920616d20736f66747761726520646576656c6f7065722077697468206f766581526020017f722034207965617273206f662070726f66657373696f6e616c2065787065726981526020017f656e63652070617373696f6e6174652061626f757420626c6f636b636861696e81526020017f20646576656c6f706d656e742e00000000000000000000000000000000000000815250600290805190602001906200015e92919062000548565b5060408051908101604052806040805190810160405280600b81526020017f4a65727a79204c6173796b00000000000000000000000000000000000000000081525081526020016040805190810160405280601481526020017f6a65727a796c6173796b40676d61696c2e636f6d00000000000000000000000081525081525060046000820151816000019080519060200190620001fe929190620005cf565b5060208201518160010190805190602001906200021d929190620005cf565b509050506040805190810160405280601a81526020017f68747470733a2f2f6769746875622e636f6d2f4a65727a794c61000000000000815250600390805190602001906200026e92919062000548565b506006805480600101828162000285919062000656565b9160005260206000209060020201600060408051908101604052806040805190810160405280600581526020017f53444152530000000000000000000000000000000000000000000000000000008152508152602001608060405190810160405280604b81526020017f536174656c6c69746520726164696f206170706c69636174696f6e20666f722081526020017f6175746f6d6f7469766520636f6d70616e696573206c696b6520566f6c766f2c81526020017f20566f6c6b73776167656e0000000000000000000000000000000000000000008152508152509091909150600082015181600001908051906020019062000384929190620005cf565b506020820151816001019080519060200190620003a3929190620005cf565b5050505060078054806001018281620003bd91906200068b565b9160005260206000209060020201600060408051908101604052806040805190810160405280600781526020017f456e676c697368000000000000000000000000000000000000000000000000008152508152602001600360048111156200042157fe5b8152509091909150600082015181600001908051906020019062000447929190620005cf565b5060208201518160010160006101000a81548160ff021916908360048111156200046d57fe5b0217905550505050600780548060010182816200048b91906200068b565b9160005260206000209060020201600060408051908101604052806040805190810160405280600381526020017f432b2b00000000000000000000000000000000000000000000000000000000008152508152602001600480811115620004ee57fe5b8152509091909150600082015181600001908051906020019062000514929190620005cf565b5060208201518160010160006101000a81548160ff021916908360048111156200053a57fe5b0217905550505050620007c2565b828054600181600116156101000203166002900490600052602060002090601f016020900481019282601f106200058b57805160ff1916838001178555620005bc565b82800160010185558215620005bc579182015b82811115620005bb5782518255916020019190600101906200059e565b5b509050620005cb9190620006c0565b5090565b828054600181600116156101000203166002900490600052602060002090601f016020900481019282601f106200061257805160ff191683800117855562000643565b8280016001018555821562000643579182015b828111156200064257825182559160200191906001019062000625565b5b509050620006529190620006c0565b5090565b8154818355818115116200068657600202816002028360005260206000209182019101620006859190620006e8565b5b505050565b815481835581811511620006bb57600202816002028360005260206000209182019101620006ba91906200072e565b5b505050565b620006e591905b80821115620006e1576000816000905550600101620006c7565b5090565b90565b6200072b91905b808211156200072757600080820160006200070b919062000776565b6001820160006200071d919062000776565b50600201620006ef565b5090565b90565b6200077391905b808211156200076f576000808201600062000751919062000776565b6001820160006101000a81549060ff02191690555060020162000735565b5090565b90565b50805460018160011615610100020316600290046000825580601f106200079e5750620007bf565b601f016020900490600052602060002090810190620007be9190620006c0565b5b50565b6124f280620007d26000396000f300606060405260043610610112576000357c0100000000000000000000000000000000000000000000000000000000900463ffffffff1680631a092541146101175780632dbe07c7146101a557806335796afd1461020257806337cb3def1461021757806338cc48311461023a57806341c0e1b5146102c85780635873f998146102dd57806359f4eda8146103005780635f2443f3146103295780637e9aef53146103865780638f366b40146103b3578063980c308d146103c8578063a5faa12514610468578063a99d0a9914610562578063bd880fae146105c8578063e4a8f18b1461066b578063e612041314610694578063efc98d28146106f1578063f0f3f2c814610791578063ff3c1a8f14610899575b600080fd5b341561012257600080fd5b61012a610927565b6040518080602001828103825283818151815260200191508051906020019080838360005b8381101561016a57808201518184015260208101905061014f565b50505050905090810190601f1680156101975780820380516001836020036101000a031916815260200191505b509250505060405180910390f35b34156101b057600080fd5b610200600480803590602001908201803590602001908080601f016020809104026020016040519081016040528093929190818152602001838380828437820191505050505050919050506109cf565b005b341561020d57600080fd5b610215610b9f565b005b341561022257600080fd5b6102386004808035906020019091905050610c6d565b005b341561024557600080fd5b61024d610e65565b6040518080602001828103825283818151815260200191508051906020019080838360005b8381101561028d578082015181840152602081019050610272565b50505050905090810190601f1680156102ba5780820380516001836020036101000a031916815260200191505b509250505060405180910390f35b34156102d357600080fd5b6102db610f0d565b005b34156102e857600080fd5b6102fe6004808035906020019091905050610f9e565b005b341561030b57600080fd5b610313611184565b6040518082815260200191505060405180910390f35b341561033457600080fd5b610384600480803590602001908201803590602001908080601f01602080910402602001604051908101604052809392919081815260200183838082843782019150505050505091905050611191565b005b341561039157600080fd5b610399611361565b604051808215151515815260200191505060405180910390f35b34156103be57600080fd5b6103c6611415565b005b34156103d357600080fd5b610466600480803590602001908201803590602001908080601f0160208091040260200160405190810160405280939291908181526020018383808284378201915050505050509190803590602001908201803590602001908080601f016020809104026020016040519081016040528093929190818152602001838380828437820191505050505050919050506114e3565b005b341561047357600080fd5b61047b611620565b604051808060200180602001838103835285818151815260200191508051906020019080838360005b838110156104bf5780820151818401526020810190506104a4565b50505050905090810190601f1680156104ec5780820380516001836020036101000a031916815260200191505b50838103825284818151815260200191508051906020019080838360005b8381101561052557808201518184015260208101905061050a565b50505050905090810190601f1680156105525780820380516001836020036101000a031916815260200191505b5094505050505060405180910390f35b341561056d57600080fd5b6105c6600480803590602001908201803590602001908080601f0160208091040260200160405190810160405280939291908181526020018383808284378201915050505050509190803590602001909190505061177a565b005b34156105d357600080fd5b6105e960048080359060200190919050506118e8565b6040518080602001838152602001828103825284818151815260200191508051906020019080838360005b8381101561062f578082015181840152602081019050610614565b50505050905090810190601f16801561065c5780820380516001836020036101000a031916815260200191505b50935050505060405180910390f35b341561067657600080fd5b61067e611a03565b6040518082815260200191505060405180910390f35b341561069f57600080fd5b6106ef600480803590602001908201803590602001908080601f01602080910402602001604051908101604052809392919081815260200183838082843782019150505050505091905050611a10565b005b34156106fc57600080fd5b61078f600480803590602001908201803590602001908080601f0160208091040260200160405190810160405280939291908181526020018383808284378201915050505050509190803590602001908201803590602001908080601f01602080910402602001604051908101604052809392919081815260200183838082843782019150505050505091905050611be0565b005b341561079c57600080fd5b6107b26004808035906020019091905050611ecc565b604051808060200180602001838103835285818151815260200191508051906020019080838360005b838110156107f65780820151818401526020810190506107db565b50505050905090810190601f1680156108235780820380516001836020036101000a031916815260200191505b50838103825284818151815260200191508051906020019080838360005b8381101561085c578082015181840152602081019050610841565b50505050905090810190601f1680156108895780820380516001836020036101000a031916815260200191505b5094505050505060405180910390f35b34156108a457600080fd5b6108ac612070565b6040518080602001828103825283818151815260200191508051906020019080838360005b838110156108ec5780820151818401526020810190506108d1565b50505050905090810190601f1680156109195780820380516001836020036101000a031916815260200191505b509250505060405180910390f35b61092f612118565b60028054600181600116156101000203166002900480601f0160208091040260200160405190810160405280929190818152602001828054600181600116156101000203166002900480156109c55780601f1061099a576101008083540402835291602001916109c5565b820191906000526020600020905b8154815290600101906020018083116109a857829003601f168201915b5050505050905090565b6000809054906101000a900473ffffffffffffffffffffffffffffffffffffffff1673ffffffffffffffffffffffffffffffffffffffff163373ffffffffffffffffffffffffffffffffffffffff16141515610a2a57600080fd5b7f305379c6f8f5ad8642ce5b6f145f08e0dad70d680b2e922429459174065bba2933600183604051808473ffffffffffffffffffffffffffffffffffffffff1673ffffffffffffffffffffffffffffffffffffffff1681526020018060200180602001838103835285818154600181600116156101000203166002900481526020019150805460018160011615610100020316600290048015610b0e5780601f10610ae357610100808354040283529160200191610b0e565b820191906000526020600020905b815481529060010190602001808311610af157829003601f168201915b5050838103825284818151815260200191508051906020019080838360005b83811015610b48578082015181840152602081019050610b2d565b50505050905090810190601f168015610b755780820380516001836020036101000a031916815260200191505b509550505050505060405180910390a18060019080519060200190610b9b92919061212c565b5050565b6000809054906101000a900473ffffffffffffffffffffffffffffffffffffffff1673ffffffffffffffffffffffffffffffffffffffff163373ffffffffffffffffffffffffffffffffffffffff16141515610bfa57600080fd5b60066000610c0891906121ac565b7f7106291446daebb4c2543291d0416bf32fcefa2edc847ee40e584d8daacd215333604051808273ffffffffffffffffffffffffffffffffffffffff1673ffffffffffffffffffffffffffffffffffffffff16815260200191505060405180910390a1565b60008060009054906101000a900473ffffffffffffffffffffffffffffffffffffffff1673ffffffffffffffffffffffffffffffffffffffff163373ffffffffffffffffffffffffffffffffffffffff16141515610cca57600080fd5b81600780549050111515610cdd57600080fd5b8190505b600160078054905003811015610d9c57600760018201815481101515610d0357fe5b9060005260206000209060020201600782815481101515610d2057fe5b906000526020600020906002020160008201816000019080546001816001161561010002031660029004610d559291906121d0565b506001820160009054906101000a900460ff168160010160006101000a81548160ff02191690836004811115610d8757fe5b02179055509050508080600101915050610ce1565b6007600160078054905003815481101515610db357fe5b906000526020600020906002020160008082016000610dd29190612257565b6001820160006101000a81549060ff021916905550506007805480919060019003610dfd919061229f565b507f6214a75a99bc9fc4d9815f9cfadbe27b786c80254feda0092df2ebc9db475d4333604051808273ffffffffffffffffffffffffffffffffffffffff1673ffffffffffffffffffffffffffffffffffffffff16815260200191505060405180910390a15050565b610e6d612118565b60038054600181600116156101000203166002900480601f016020809104026020016040519081016040528092919081815260200182805460018160011615610100020316600290048015610f035780601f10610ed857610100808354040283529160200191610f03565b820191906000526020600020905b815481529060010190602001808311610ee657829003601f168201915b5050505050905090565b6000809054906101000a900473ffffffffffffffffffffffffffffffffffffffff1673ffffffffffffffffffffffffffffffffffffffff163373ffffffffffffffffffffffffffffffffffffffff161415610f9c576000809054906101000a900473ffffffffffffffffffffffffffffffffffffffff1673ffffffffffffffffffffffffffffffffffffffff16ff5b565b60008060009054906101000a900473ffffffffffffffffffffffffffffffffffffffff1673ffffffffffffffffffffffffffffffffffffffff163373ffffffffffffffffffffffffffffffffffffffff16141515610ffb57600080fd5b8160068054905011151561100e57600080fd5b8190505b6001600680549050038110156110bf5760066001820181548110151561103457fe5b906000526020600020906002020160068281548110151561105157fe5b9060005260206000209060020201600082018160000190805460018160011615610100020316600290046110869291906121d0565b50600182018160010190805460018160011615610100020316600290046110ae9291906121d0565b509050508080600101915050611012565b60066001600680549050038154811015156110d657fe5b9060005260206000209060020201600080820160006110f59190612257565b6001820160006111059190612257565b5050600680548091906001900361111c91906122d1565b507f7106291446daebb4c2543291d0416bf32fcefa2edc847ee40e584d8daacd215333604051808273ffffffffffffffffffffffffffffffffffffffff1673ffffffffffffffffffffffffffffffffffffffff16815260200191505060405180910390a15050565b6000600780549050905090565b6000809054906101000a900473ffffffffffffffffffffffffffffffffffffffff1673ffffffffffffffffffffffffffffffffffffffff163373ffffffffffffffffffffffffffffffffffffffff161415156111ec57600080fd5b7ffa615365cef3fc4a9d338c6f76f9bc5fb5c7dd233d706a328c336cfb33d0469233600383604051808473ffffffffffffffffffffffffffffffffffffffff1673ffffffffffffffffffffffffffffffffffffffff16815260200180602001806020018381038352858181546001816001161561010002031660029004815260200191508054600181600116156101000203166002900480156112d05780601f106112a5576101008083540402835291602001916112d0565b820191906000526020600020905b8154815290600101906020018083116112b357829003601f168201915b5050838103825284818151815260200191508051906020019080838360005b8381101561130a5780820151818401526020810190506112ef565b50505050905090810190601f1680156113375780820380516001836020036101000a031916815260200191505b509550505050505060405180910390a1806003908051906020019061135d92919061212c565b5050565b600061136b612303565b611373612118565b61137b612118565b611383610927565b9250600083511415611398576000935061140f565b6113a0612070565b92506000835114156113b5576000935061140f565b6113bd611620565b915091508192506000835114156113d7576000935061140f565b8092506000835114156113ed576000935061140f565b6113f5610e65565b925060008351141561140a576000935061140f565b600193505b50505090565b6000809054906101000a900473ffffffffffffffffffffffffffffffffffffffff1673ffffffffffffffffffffffffffffffffffffffff163373ffffffffffffffffffffffffffffffffffffffff1614151561147057600080fd5b6007600061147e9190612317565b7f6214a75a99bc9fc4d9815f9cfadbe27b786c80254feda0092df2ebc9db475d4333604051808273ffffffffffffffffffffffffffffffffffffffff1673ffffffffffffffffffffffffffffffffffffffff16815260200191505060405180910390a1565b6000809054906101000a900473ffffffffffffffffffffffffffffffffffffffff1673ffffffffffffffffffffffffffffffffffffffff163373ffffffffffffffffffffffffffffffffffffffff1614151561153e57600080fd5b60068054806001018281611552919061233b565b916000526020600020906002020160006040805190810160405280868152602001858152509091909150600082015181600001908051906020019061159892919061236d565b5060208201518160010190805190602001906115b592919061236d565b505050507f7106291446daebb4c2543291d0416bf32fcefa2edc847ee40e584d8daacd215333604051808273ffffffffffffffffffffffffffffffffffffffff1673ffffffffffffffffffffffffffffffffffffffff16815260200191505060405180910390a15050565b611628612118565b611630612118565b60046000016004600101818054600181600116156101000203166002900480601f0160208091040260200160405190810160405280929190818152602001828054600181600116156101000203166002900480156116cf5780601f106116a4576101008083540402835291602001916116cf565b820191906000526020600020905b8154815290600101906020018083116116b257829003601f168201915b50505050509150808054600181600116156101000203166002900480601f01602080910402602001604051908101604052809291908181526020018280546001816001161561010002031660029004801561176b5780601f106117405761010080835404028352916020019161176b565b820191906000526020600020905b81548152906001019060200180831161174e57829003601f168201915b50505050509050915091509091565b6000809054906101000a900473ffffffffffffffffffffffffffffffffffffffff1673ffffffffffffffffffffffffffffffffffffffff163373ffffffffffffffffffffffffffffffffffffffff161415156117d557600080fd5b6005811015156117e457600080fd5b600780548060010182816117f891906123ed565b91600052602060002090600202016000604080519081016040528086815260200185600481111561182557fe5b600481111561183057fe5b8152509091909150600082015181600001908051906020019061185492919061236d565b5060208201518160010160006101000a81548160ff0219169083600481111561187957fe5b02179055505050507f6214a75a99bc9fc4d9815f9cfadbe27b786c80254feda0092df2ebc9db475d4333604051808273ffffffffffffffffffffffffffffffffffffffff1673ffffffffffffffffffffffffffffffffffffffff16815260200191505060405180910390a15050565b6118f0612118565b60008260078054905011151561190557600080fd5b60078381548110151561191457fe5b906000526020600020906002020160000160078481548110151561193457fe5b906000526020600020906002020160010160009054906101000a900460ff16600481111561195e57fe5b818054600181600116156101000203166002900480601f0160208091040260200160405190810160405280929190818152602001828054600181600116156101000203166002900480156119f35780601f106119c8576101008083540402835291602001916119f3565b820191906000526020600020905b8154815290600101906020018083116119d657829003601f168201915b5050505050915091509150915091565b6000600680549050905090565b6000809054906101000a900473ffffffffffffffffffffffffffffffffffffffff1673ffffffffffffffffffffffffffffffffffffffff163373ffffffffffffffffffffffffffffffffffffffff16141515611a6b57600080fd5b7f44a2056a15c91e43da5fd64535bb74c912e0e630f931949abd146b4fb1f1a00833600283604051808473ffffffffffffffffffffffffffffffffffffffff1673ffffffffffffffffffffffffffffffffffffffff1681526020018060200180602001838103835285818154600181600116156101000203166002900481526020019150805460018160011615610100020316600290048015611b4f5780601f10611b2457610100808354040283529160200191611b4f565b820191906000526020600020905b815481529060010190602001808311611b3257829003601f168201915b5050838103825284818151815260200191508051906020019080838360005b83811015611b89578082015181840152602081019050611b6e565b50505050905090810190601f168015611bb65780820380516001836020036101000a031916815260200191505b509550505050505060405180910390a18060029080519060200190611bdc92919061212c565b5050565b6000809054906101000a900473ffffffffffffffffffffffffffffffffffffffff1673ffffffffffffffffffffffffffffffffffffffff163373ffffffffffffffffffffffffffffffffffffffff16141515611c3b57600080fd5b7fd742b0fa5cb0e51854ace485d17ca8db70fa19942d10ccfc7cbecbb3965f93cd33600460000160046001018585604051808673ffffffffffffffffffffffffffffffffffffffff1673ffffffffffffffffffffffffffffffffffffffff16815260200180602001806020018060200180602001858103855289818154600181600116156101000203166002900481526020019150805460018160011615610100020316600290048015611d305780601f10611d0557610100808354040283529160200191611d30565b820191906000526020600020905b815481529060010190602001808311611d1357829003601f168201915b5050858103845288818154600181600116156101000203166002900481526020019150805460018160011615610100020316600290048015611db35780601f10611d8857610100808354040283529160200191611db3565b820191906000526020600020905b815481529060010190602001808311611d9657829003601f168201915b5050858103835287818151815260200191508051906020019080838360005b83811015611ded578082015181840152602081019050611dd2565b50505050905090810190601f168015611e1a5780820380516001836020036101000a031916815260200191505b50858103825286818151815260200191508051906020019080838360005b83811015611e53578082015181840152602081019050611e38565b50505050905090810190601f168015611e805780820380516001836020036101000a031916815260200191505b50995050505050505050505060405180910390a18160046000019080519060200190611ead92919061212c565b508060046001019080519060200190611ec792919061212c565b505050565b611ed4612118565b611edc612118565b82600680549050111515611eef57600080fd5b600683815481101515611efe57fe5b9060005260206000209060020201600001600684815481101515611f1e57fe5b9060005260206000209060020201600101818054600181600116156101000203166002900480601f016020809104026020016040519081016040528092919081815260200182805460018160011615610100020316600290048015611fc45780601f10611f9957610100808354040283529160200191611fc4565b820191906000526020600020905b815481529060010190602001808311611fa757829003601f168201915b50505050509150808054600181600116156101000203166002900480601f0160208091040260200160405190810160405280929190818152602001828054600181600116156101000203166002900480156120605780601f1061203557610100808354040283529160200191612060565b820191906000526020600020905b81548152906001019060200180831161204357829003601f168201915b5050505050905091509150915091565b612078612118565b60018054600181600116156101000203166002900480601f01602080910402602001604051908101604052809291908181526020018280546001816001161561010002031660029004801561210e5780601f106120e35761010080835404028352916020019161210e565b820191906000526020600020905b8154815290600101906020018083116120f157829003601f168201915b5050505050905090565b602060405190810160405280600081525090565b828054600181600116156101000203166002900490600052602060002090601f016020900481019282601f1061216d57805160ff191683800117855561219b565b8280016001018555821561219b579182015b8281111561219a57825182559160200191906001019061217f565b5b5090506121a8919061241f565b5090565b50805460008255600202906000526020600020908101906121cd9190612444565b50565b828054600181600116156101000203166002900490600052602060002090601f016020900481019282601f106122095780548555612246565b8280016001018555821561224657600052602060002091601f016020900482015b8281111561224557825482559160010191906001019061222a565b5b509050612253919061241f565b5090565b50805460018160011615610100020316600290046000825580601f1061227d575061229c565b601f01602090049060005260206000209081019061229b919061241f565b5b50565b8154818355818115116122cc576002028160020283600052602060002091820191016122cb9190612483565b5b505050565b8154818355818115116122fe576002028160020283600052602060002091820191016122fd9190612444565b5b505050565b602060405190810160405280600081525090565b50805460008255600202906000526020600020908101906123389190612483565b50565b815481835581811511612368576002028160020283600052602060002091820191016123679190612444565b5b505050565b828054600181600116156101000203166002900490600052602060002090601f016020900481019282601f106123ae57805160ff19168380011785556123dc565b828001600101855582156123dc579182015b828111156123db5782518255916020019190600101906123c0565b5b5090506123e9919061241f565b5090565b81548183558181151161241a576002028160020283600052602060002091820191016124199190612483565b5b505050565b61244191905b8082111561243d576000816000905550600101612425565b5090565b90565b61248091905b8082111561247c57600080820160006124639190612257565b6001820160006124739190612257565b5060020161244a565b5090565b90565b6124c391905b808211156124bf57600080820160006124a29190612257565b6001820160006101000a81549060ff021916905550600201612489565b5090565b905600a165627a7a723058206cec92a0cfbabb60902c18fe0b68f5c7d07acbbac08472a94c9beca6145d06e00029",
  "source": "pragma solidity ^0.4.18;\r\n\r\nimport \"./Mortal.sol\";\r\nimport \"./CVExtender.sol\";\r\n\r\n// TODO: zrobi wasny frontend do tego CV\r\n// TODO: update, eby wygldao prawie jak CV z strony interviewme\r\n// TODO: frontend ma sie updatowac z kazda zmiana\r\n// TODO: serialized arrays\r\n// TODO: przetestuj na testowym blockchainie\r\n// TODO: submit do nich\r\n\r\ncontract MyCV is CVExtender, Mortal {\r\n    event AddressChanged(address from, string oldAddress, string newAddress);\r\n    event DescriptionChanged(address from, string oldDescription, string newDescription);\r\n    event TitleChanged(address from, string oldTitle, string newTitle);\r\n    event AuthorChanged(address from, string oldName, string oldEmail, string newName, string newEmail);\r\n    event SkillsChanged(address from);\r\n    event ProjectsChanged(address from);\r\n\r\n    struct PersonalInfo {\r\n        string name;\r\n        string email;\r\n    }\r\n\r\n    struct Project {\r\n        string name;\r\n        string description;\r\n    }\r\n\r\n    enum SkillLevel {BASIC, MEDIUM, GOOD, VERY_GOOD, EXPERT}\r\n\r\n    struct Skill {\r\n        string name;\r\n        SkillLevel level;\r\n    }\r\n\r\n    string m_title;\r\n    string m_description;\r\n    string m_addressUrl;\r\n    PersonalInfo m_personalInfo;\r\n    Project[] m_projects;\r\n    Skill[] m_skills;\r\n\r\n    function MyCV() public {\r\n        m_title = \"Jerzy Lasyk CV\";\r\n        m_description = \"I am software developer with over 4 years of professional experience passionate about blockchain development.\";\r\n        m_personalInfo = PersonalInfo(\"Jerzy Lasyk\", \"jerzylasyk@gmail.com\");\r\n        m_addressUrl = \"https://github.com/JerzyLa\";\r\n        m_projects.push(Project(\"SDARS\", \"Satellite radio application for automotive companies like Volvo, Volkswagen\"));\r\n        m_skills.push(Skill(\"English\", SkillLevel.VERY_GOOD));\r\n        m_skills.push(Skill(\"C++\", SkillLevel.EXPERT));\r\n    }\r\n\r\n    function getAddress() public view returns(string) {\r\n        return m_addressUrl;\r\n    }\r\n\r\n    function changeAddress(string addressUrl) public onlyowner {\r\n        AddressChanged(msg.sender, m_addressUrl, addressUrl);\r\n        m_addressUrl = addressUrl;\r\n    }\r\n\r\n    function getDescription() public view returns(string) {\r\n        return m_description;\r\n    }\r\n\r\n    function changeDescription(string description) public onlyowner {\r\n        DescriptionChanged(msg.sender, m_description, description);\r\n        m_description = description;\r\n    }\r\n\r\n    function getTitle() public view returns(string) {\r\n        return m_title;\r\n    }\r\n\r\n    function changeTitle(string title) public onlyowner {\r\n        TitleChanged(msg.sender, m_title, title);\r\n        m_title = title;\r\n    }\r\n\r\n    function getAuthor() public view returns(string, string) {\r\n        return (m_personalInfo.name, m_personalInfo.email);\r\n    }\r\n\r\n    function changeAuthor(string name, string email) public onlyowner {\r\n        AuthorChanged(msg.sender, m_personalInfo.name, m_personalInfo.email, name, email);\r\n        m_personalInfo.name = name;\r\n        m_personalInfo.email = email;\r\n    }\r\n\r\n    function getSkillsCount() public view returns(uint) {\r\n        return m_skills.length;\r\n    }\r\n\r\n    function getSkill(uint index) public view returns(string, uint) {\r\n        require(m_skills.length > index);\r\n        return (m_skills[index].name, uint(m_skills[index].level));\r\n    }\r\n\r\n    function addSkill(string name, uint level) public onlyowner {\r\n        require(level < 5);\r\n        m_skills.push(Skill(name, SkillLevel(level)));\r\n        SkillsChanged(msg.sender);\r\n    }\r\n\r\n    function removeSkill(uint index) public onlyowner {\r\n        require(m_skills.length > index);\r\n        for (uint i = index; i < m_skills.length-1; i++) {\r\n            m_skills[i] = m_skills[i+1];\r\n        }\r\n        delete m_skills[m_skills.length-1];\r\n        m_skills.length--;\r\n        SkillsChanged(msg.sender);\r\n    }\r\n\r\n    function removeAllSkills() public onlyowner {\r\n        delete m_skills;\r\n        SkillsChanged(msg.sender);\r\n    }\r\n\r\n    function getProjectsCount() public view returns(uint) {\r\n        return m_projects.length;\r\n    }\r\n\r\n    function getProject(uint index) public view returns(string, string) {\r\n        require(m_projects.length > index);\r\n        return (m_projects[index].name, m_projects[index].description);\r\n    }\r\n\r\n    function addProject(string name, string description) public onlyowner {\r\n        m_projects.push(Project(name, description));\r\n        ProjectsChanged(msg.sender);\r\n    }\r\n\r\n    function removeProject(uint index) public onlyowner {\r\n        require(m_projects.length > index);\r\n        for (uint i = index; i < m_projects.length-1; i++) {\r\n            m_projects[i] = m_projects[i+1];\r\n        }\r\n        delete m_projects[m_projects.length-1];\r\n        m_projects.length--;\r\n        ProjectsChanged(msg.sender);\r\n    }\r\n\r\n    function removeAllProjectes() public onlyowner {\r\n        delete m_projects;\r\n        ProjectsChanged(msg.sender);\r\n    }\r\n}\r\n",
  "sourcePath": "G:\\Projekty\\Etherum-projects\\truffle-react-cv\\contracts\\MyCV.sol",
  "compiler": {
    "name": "solc",
    "version": "0.4.19+commit.c4cbbb05.Emscripten.clang"
  },
  "schemaVersion": "2.0.0",
  "updatedAt": "2018-03-29T21:25:29.313Z"
}