{
  "contractName": "MyCV",
  "abi": [
    {
      "constant": true,
      "inputs": [],
      "name": "getDescription",
      "outputs": [
        {
          "name": "",
          "type": "string"
        }
      ],
      "payable": false,
      "stateMutability": "view",
      "type": "function"
    },
    {
      "constant": false,
      "inputs": [
        {
          "name": "title",
          "type": "string"
        }
      ],
      "name": "changeTitle",
      "outputs": [],
      "payable": false,
      "stateMutability": "nonpayable",
      "type": "function"
    },
    {
      "constant": false,
      "inputs": [],
      "name": "removeAllProjectes",
      "outputs": [],
      "payable": false,
      "stateMutability": "nonpayable",
      "type": "function"
    },
    {
      "constant": false,
      "inputs": [
        {
          "name": "index",
          "type": "uint256"
        }
      ],
      "name": "removeSkill",
      "outputs": [],
      "payable": false,
      "stateMutability": "nonpayable",
      "type": "function"
    },
    {
      "constant": true,
      "inputs": [],
      "name": "getAddress",
      "outputs": [
        {
          "name": "",
          "type": "string"
        }
      ],
      "payable": false,
      "stateMutability": "view",
      "type": "function"
    },
    {
      "constant": false,
      "inputs": [],
      "name": "kill",
      "outputs": [],
      "payable": false,
      "stateMutability": "nonpayable",
      "type": "function"
    },
    {
      "constant": false,
      "inputs": [
        {
          "name": "index",
          "type": "uint256"
        }
      ],
      "name": "removeProject",
      "outputs": [],
      "payable": false,
      "stateMutability": "nonpayable",
      "type": "function"
    },
    {
      "constant": true,
      "inputs": [],
      "name": "getSkillsCount",
      "outputs": [
        {
          "name": "",
          "type": "uint256"
        }
      ],
      "payable": false,
      "stateMutability": "view",
      "type": "function"
    },
    {
      "constant": false,
      "inputs": [
        {
          "name": "addressUrl",
          "type": "string"
        }
      ],
      "name": "changeAddress",
      "outputs": [],
      "payable": false,
      "stateMutability": "nonpayable",
      "type": "function"
    },
    {
      "constant": true,
      "inputs": [],
      "name": "elementsAreSet",
      "outputs": [
        {
          "name": "",
          "type": "bool"
        }
      ],
      "payable": false,
      "stateMutability": "view",
      "type": "function"
    },
    {
      "constant": false,
      "inputs": [],
      "name": "removeAllSkills",
      "outputs": [],
      "payable": false,
      "stateMutability": "nonpayable",
      "type": "function"
    },
    {
      "constant": false,
      "inputs": [
        {
          "name": "name",
          "type": "string"
        },
        {
          "name": "description",
          "type": "string"
        }
      ],
      "name": "addProject",
      "outputs": [],
      "payable": false,
      "stateMutability": "nonpayable",
      "type": "function"
    },
    {
      "constant": true,
      "inputs": [],
      "name": "getAuthor",
      "outputs": [
        {
          "name": "",
          "type": "string"
        },
        {
          "name": "",
          "type": "string"
        }
      ],
      "payable": false,
      "stateMutability": "view",
      "type": "function"
    },
    {
      "constant": false,
      "inputs": [
        {
          "name": "name",
          "type": "string"
        },
        {
          "name": "level",
          "type": "uint256"
        }
      ],
      "name": "addSkill",
      "outputs": [],
      "payable": false,
      "stateMutability": "nonpayable",
      "type": "function"
    },
    {
      "constant": true,
      "inputs": [
        {
          "name": "index",
          "type": "uint256"
        }
      ],
      "name": "getSkill",
      "outputs": [
        {
          "name": "",
          "type": "string"
        },
        {
          "name": "",
          "type": "uint256"
        }
      ],
      "payable": false,
      "stateMutability": "view",
      "type": "function"
    },
    {
      "constant": true,
      "inputs": [],
      "name": "getProjectsCount",
      "outputs": [
        {
          "name": "",
          "type": "uint256"
        }
      ],
      "payable": false,
      "stateMutability": "view",
      "type": "function"
    },
    {
      "constant": false,
      "inputs": [
        {
          "name": "description",
          "type": "string"
        }
      ],
      "name": "changeDescription",
      "outputs": [],
      "payable": false,
      "stateMutability": "nonpayable",
      "type": "function"
    },
    {
      "constant": false,
      "inputs": [
        {
          "name": "name",
          "type": "string"
        },
        {
          "name": "email",
          "type": "string"
        }
      ],
      "name": "changeAuthor",
      "outputs": [],
      "payable": false,
      "stateMutability": "nonpayable",
      "type": "function"
    },
    {
      "constant": true,
      "inputs": [
        {
          "name": "index",
          "type": "uint256"
        }
      ],
      "name": "getProject",
      "outputs": [
        {
          "name": "",
          "type": "string"
        },
        {
          "name": "",
          "type": "string"
        }
      ],
      "payable": false,
      "stateMutability": "view",
      "type": "function"
    },
    {
      "constant": true,
      "inputs": [],
      "name": "getTitle",
      "outputs": [
        {
          "name": "",
          "type": "string"
        }
      ],
      "payable": false,
      "stateMutability": "view",
      "type": "function"
    },
    {
      "inputs": [],
      "payable": false,
      "stateMutability": "nonpayable",
      "type": "constructor"
    },
    {
      "anonymous": false,
      "inputs": [
        {
          "indexed": false,
          "name": "from",
          "type": "address"
        },
        {
          "indexed": false,
          "name": "oldAddress",
          "type": "string"
        },
        {
          "indexed": false,
          "name": "newAddress",
          "type": "string"
        }
      ],
      "name": "AddressChanged",
      "type": "event"
    },
    {
      "anonymous": false,
      "inputs": [
        {
          "indexed": false,
          "name": "from",
          "type": "address"
        },
        {
          "indexed": false,
          "name": "oldDescription",
          "type": "string"
        },
        {
          "indexed": false,
          "name": "newDescription",
          "type": "string"
        }
      ],
      "name": "DescriptionChanged",
      "type": "event"
    },
    {
      "anonymous": false,
      "inputs": [
        {
          "indexed": false,
          "name": "from",
          "type": "address"
        },
        {
          "indexed": false,
          "name": "oldTitle",
          "type": "string"
        },
        {
          "indexed": false,
          "name": "newTitle",
          "type": "string"
        }
      ],
      "name": "TitleChanged",
      "type": "event"
    },
    {
      "anonymous": false,
      "inputs": [
        {
          "indexed": false,
          "name": "from",
          "type": "address"
        },
        {
          "indexed": false,
          "name": "oldName",
          "type": "string"
        },
        {
          "indexed": false,
          "name": "oldEmail",
          "type": "string"
        },
        {
          "indexed": false,
          "name": "newName",
          "type": "string"
        },
        {
          "indexed": false,
          "name": "newEmail",
          "type": "string"
        }
      ],
      "name": "AuthorChanged",
      "type": "event"
    },
    {
      "anonymous": false,
      "inputs": [
        {
          "indexed": false,
          "name": "from",
          "type": "address"
        },
        {
          "indexed": false,
          "name": "name",
          "type": "string"
        },
        {
          "indexed": false,
          "name": "skillLevel",
          "type": "uint256"
        }
      ],
      "name": "SkillAdded",
      "type": "event"
    },
    {
      "anonymous": false,
      "inputs": [
        {
          "indexed": false,
          "name": "from",
          "type": "address"
        },
        {
          "indexed": false,
          "name": "name",
          "type": "string"
        },
        {
          "indexed": false,
          "name": "description",
          "type": "string"
        }
      ],
      "name": "ProjectAdded",
      "type": "event"
    }
  ],
  "bytecode": "0x606060405234156200001057600080fd5b336000806101000a81548173ffffffffffffffffffffffffffffffffffffffff021916908373ffffffffffffffffffffffffffffffffffffffff1602179055506040805190810160405280600e81526020017f4a65727a79204c6173796b204356000000000000000000000000000000000000815250600190805190602001906200009d9291906200047b565b5060a060405190810160405280606d81526020017f4920616d20736f66747761726520646576656c6f7065722077697468206f766581526020017f722034207965617273206f662070726f66657373696f6e616c2065787065726981526020017f656e63652070617373696f6e6174652061626f757420626c6f636b636861696e81526020017f20646576656c6f706d656e742e00000000000000000000000000000000000000815250600290805190602001906200015e9291906200047b565b5060408051908101604052806040805190810160405280600b81526020017f4a65727a79204c6173796b00000000000000000000000000000000000000000081525081526020016040805190810160405280601481526020017f6a65727a796c6173796b40676d61696c2e636f6d00000000000000000000000081525081525060046000820151816000019080519060200190620001fe92919062000502565b5060208201518160010190805190602001906200021d92919062000502565b509050506040805190810160405280601a81526020017f68747470733a2f2f6769746875622e636f6d2f4a65727a794c61000000000000815250600390805190602001906200026e9291906200047b565b506006805480600101828162000285919062000589565b9160005260206000209060020201600060408051908101604052806040805190810160405280600581526020017f53444152530000000000000000000000000000000000000000000000000000008152508152602001608060405190810160405280604b81526020017f536174656c6c69746520726164696f206170706c69636174696f6e20666f722081526020017f6175746f6d6f7469766520636f6d70616e696573206c696b6520566f6c766f2c81526020017f20566f6c6b73776167656e000000000000000000000000000000000000000000815250815250909190915060008201518160000190805190602001906200038492919062000502565b506020820151816001019080519060200190620003a392919062000502565b5050505060078054806001018281620003bd9190620005be565b9160005260206000209060020201600060408051908101604052806040805190810160405280600781526020017f456e676c697368000000000000000000000000000000000000000000000000008152508152602001600360048111156200042157fe5b815250909190915060008201518160000190805190602001906200044792919062000502565b5060208201518160010160006101000a81548160ff021916908360048111156200046d57fe5b0217905550505050620006f5565b828054600181600116156101000203166002900490600052602060002090601f016020900481019282601f10620004be57805160ff1916838001178555620004ef565b82800160010185558215620004ef579182015b82811115620004ee578251825591602001919060010190620004d1565b5b509050620004fe9190620005f3565b5090565b828054600181600116156101000203166002900490600052602060002090601f016020900481019282601f106200054557805160ff191683800117855562000576565b8280016001018555821562000576579182015b828111156200057557825182559160200191906001019062000558565b5b509050620005859190620005f3565b5090565b815481835581811511620005b957600202816002028360005260206000209182019101620005b891906200061b565b5b505050565b815481835581811511620005ee57600202816002028360005260206000209182019101620005ed919062000661565b5b505050565b6200061891905b8082111562000614576000816000905550600101620005fa565b5090565b90565b6200065e91905b808211156200065a57600080820160006200063e9190620006a9565b600182016000620006509190620006a9565b5060020162000622565b5090565b90565b620006a691905b80821115620006a25760008082016000620006849190620006a9565b6001820160006101000a81549060ff02191690555060020162000668565b5090565b90565b50805460018160011615610100020316600290046000825580601f10620006d15750620006f2565b601f016020900490600052602060002090810190620006f19190620005f3565b5b50565b6124b580620007056000396000f300606060405260043610610112576000357c0100000000000000000000000000000000000000000000000000000000900463ffffffff1680631a092541146101175780632dbe07c7146101a557806335796afd1461020257806337cb3def1461021757806338cc48311461023a57806341c0e1b5146102c85780635873f998146102dd57806359f4eda8146103005780635f2443f3146103295780637e9aef53146103865780638f366b40146103b3578063980c308d146103c8578063a5faa12514610468578063a99d0a9914610562578063bd880fae146105c8578063e4a8f18b1461066b578063e612041314610694578063efc98d28146106f1578063f0f3f2c814610791578063ff3c1a8f14610899575b600080fd5b341561012257600080fd5b61012a610927565b6040518080602001828103825283818151815260200191508051906020019080838360005b8381101561016a57808201518184015260208101905061014f565b50505050905090810190601f1680156101975780820380516001836020036101000a031916815260200191505b509250505060405180910390f35b34156101b057600080fd5b610200600480803590602001908201803590602001908080601f016020809104026020016040519081016040528093929190818152602001838380828437820191505050505050919050506109cf565b005b341561020d57600080fd5b610215610b9f565b005b341561022257600080fd5b6102386004808035906020019091905050610c0a565b005b341561024557600080fd5b61024d610d9f565b6040518080602001828103825283818151815260200191508051906020019080838360005b8381101561028d578082015181840152602081019050610272565b50505050905090810190601f1680156102ba5780820380516001836020036101000a031916815260200191505b509250505060405180910390f35b34156102d357600080fd5b6102db610e47565b005b34156102e857600080fd5b6102fe6004808035906020019091905050610ed8565b005b341561030b57600080fd5b61031361105b565b6040518082815260200191505060405180910390f35b341561033457600080fd5b610384600480803590602001908201803590602001908080601f01602080910402602001604051908101604052809392919081815260200183838082843782019150505050505091905050611068565b005b341561039157600080fd5b610399611238565b604051808215151515815260200191505060405180910390f35b34156103be57600080fd5b6103c66112ec565b005b34156103d357600080fd5b610466600480803590602001908201803590602001908080601f0160208091040260200160405190810160405280939291908181526020018383808284378201915050505050509190803590602001908201803590602001908080601f01602080910402602001604051908101604052809392919081815260200183838082843782019150505050505091905050611357565b005b341561047357600080fd5b61047b61156e565b604051808060200180602001838103835285818151815260200191508051906020019080838360005b838110156104bf5780820151818401526020810190506104a4565b50505050905090810190601f1680156104ec5780820380516001836020036101000a031916815260200191505b50838103825284818151815260200191508051906020019080838360005b8381101561052557808201518184015260208101905061050a565b50505050905090810190601f1680156105525780820380516001836020036101000a031916815260200191505b5094505050505060405180910390f35b341561056d57600080fd5b6105c6600480803590602001908201803590602001908080601f016020809104026020016040519081016040528093929190818152602001838380828437820191505050505050919080359060200190919050506116c8565b005b34156105d357600080fd5b6105e960048080359060200190919050506118ab565b6040518080602001838152602001828103825284818151815260200191508051906020019080838360005b8381101561062f578082015181840152602081019050610614565b50505050905090810190601f16801561065c5780820380516001836020036101000a031916815260200191505b50935050505060405180910390f35b341561067657600080fd5b61067e6119c6565b6040518082815260200191505060405180910390f35b341561069f57600080fd5b6106ef600480803590602001908201803590602001908080601f016020809104026020016040519081016040528093929190818152602001838380828437820191505050505050919050506119d3565b005b34156106fc57600080fd5b61078f600480803590602001908201803590602001908080601f0160208091040260200160405190810160405280939291908181526020018383808284378201915050505050509190803590602001908201803590602001908080601f01602080910402602001604051908101604052809392919081815260200183838082843782019150505050505091905050611ba3565b005b341561079c57600080fd5b6107b26004808035906020019091905050611e8f565b604051808060200180602001838103835285818151815260200191508051906020019080838360005b838110156107f65780820151818401526020810190506107db565b50505050905090810190601f1680156108235780820380516001836020036101000a031916815260200191505b50838103825284818151815260200191508051906020019080838360005b8381101561085c578082015181840152602081019050610841565b50505050905090810190601f1680156108895780820380516001836020036101000a031916815260200191505b5094505050505060405180910390f35b34156108a457600080fd5b6108ac612033565b6040518080602001828103825283818151815260200191508051906020019080838360005b838110156108ec5780820151818401526020810190506108d1565b50505050905090810190601f1680156109195780820380516001836020036101000a031916815260200191505b509250505060405180910390f35b61092f6120db565b60028054600181600116156101000203166002900480601f0160208091040260200160405190810160405280929190818152602001828054600181600116156101000203166002900480156109c55780601f1061099a576101008083540402835291602001916109c5565b820191906000526020600020905b8154815290600101906020018083116109a857829003601f168201915b5050505050905090565b6000809054906101000a900473ffffffffffffffffffffffffffffffffffffffff1673ffffffffffffffffffffffffffffffffffffffff163373ffffffffffffffffffffffffffffffffffffffff16141515610a2a57600080fd5b7f305379c6f8f5ad8642ce5b6f145f08e0dad70d680b2e922429459174065bba2933600183604051808473ffffffffffffffffffffffffffffffffffffffff1673ffffffffffffffffffffffffffffffffffffffff1681526020018060200180602001838103835285818154600181600116156101000203166002900481526020019150805460018160011615610100020316600290048015610b0e5780601f10610ae357610100808354040283529160200191610b0e565b820191906000526020600020905b815481529060010190602001808311610af157829003601f168201915b5050838103825284818151815260200191508051906020019080838360005b83811015610b48578082015181840152602081019050610b2d565b50505050905090810190601f168015610b755780820380516001836020036101000a031916815260200191505b509550505050505060405180910390a18060019080519060200190610b9b9291906120ef565b5050565b6000809054906101000a900473ffffffffffffffffffffffffffffffffffffffff1673ffffffffffffffffffffffffffffffffffffffff163373ffffffffffffffffffffffffffffffffffffffff16141515610bfa57600080fd5b60066000610c08919061216f565b565b60008060009054906101000a900473ffffffffffffffffffffffffffffffffffffffff1673ffffffffffffffffffffffffffffffffffffffff163373ffffffffffffffffffffffffffffffffffffffff16141515610c6757600080fd5b81600780549050111515610c7a57600080fd5b8190505b600160078054905003811015610d3957600760018201815481101515610ca057fe5b9060005260206000209060020201600782815481101515610cbd57fe5b906000526020600020906002020160008201816000019080546001816001161561010002031660029004610cf2929190612193565b506001820160009054906101000a900460ff168160010160006101000a81548160ff02191690836004811115610d2457fe5b02179055509050508080600101915050610c7e565b6007600160078054905003815481101515610d5057fe5b906000526020600020906002020160008082016000610d6f919061221a565b6001820160006101000a81549060ff021916905550506007805480919060019003610d9a9190612262565b505050565b610da76120db565b60038054600181600116156101000203166002900480601f016020809104026020016040519081016040528092919081815260200182805460018160011615610100020316600290048015610e3d5780601f10610e1257610100808354040283529160200191610e3d565b820191906000526020600020905b815481529060010190602001808311610e2057829003601f168201915b5050505050905090565b6000809054906101000a900473ffffffffffffffffffffffffffffffffffffffff1673ffffffffffffffffffffffffffffffffffffffff163373ffffffffffffffffffffffffffffffffffffffff161415610ed6576000809054906101000a900473ffffffffffffffffffffffffffffffffffffffff1673ffffffffffffffffffffffffffffffffffffffff16ff5b565b60008060009054906101000a900473ffffffffffffffffffffffffffffffffffffffff1673ffffffffffffffffffffffffffffffffffffffff163373ffffffffffffffffffffffffffffffffffffffff16141515610f3557600080fd5b81600680549050111515610f4857600080fd5b8190505b600160068054905003811015610ff957600660018201815481101515610f6e57fe5b9060005260206000209060020201600682815481101515610f8b57fe5b906000526020600020906002020160008201816000019080546001816001161561010002031660029004610fc0929190612193565b5060018201816001019080546001816001161561010002031660029004610fe8929190612193565b509050508080600101915050610f4c565b600660016006805490500381548110151561101057fe5b90600052602060002090600202016000808201600061102f919061221a565b60018201600061103f919061221a565b505060068054809190600190036110569190612294565b505050565b6000600780549050905090565b6000809054906101000a900473ffffffffffffffffffffffffffffffffffffffff1673ffffffffffffffffffffffffffffffffffffffff163373ffffffffffffffffffffffffffffffffffffffff161415156110c357600080fd5b7ffa615365cef3fc4a9d338c6f76f9bc5fb5c7dd233d706a328c336cfb33d0469233600383604051808473ffffffffffffffffffffffffffffffffffffffff1673ffffffffffffffffffffffffffffffffffffffff16815260200180602001806020018381038352858181546001816001161561010002031660029004815260200191508054600181600116156101000203166002900480156111a75780601f1061117c576101008083540402835291602001916111a7565b820191906000526020600020905b81548152906001019060200180831161118a57829003601f168201915b5050838103825284818151815260200191508051906020019080838360005b838110156111e15780820151818401526020810190506111c6565b50505050905090810190601f16801561120e5780820380516001836020036101000a031916815260200191505b509550505050505060405180910390a180600390805190602001906112349291906120ef565b5050565b60006112426122c6565b61124a6120db565b6112526120db565b61125a610927565b925060008351141561126f57600093506112e6565b611277612033565b925060008351141561128c57600093506112e6565b61129461156e565b915091508192506000835114156112ae57600093506112e6565b8092506000835114156112c457600093506112e6565b6112cc610d9f565b92506000835114156112e157600093506112e6565b600193505b50505090565b6000809054906101000a900473ffffffffffffffffffffffffffffffffffffffff1673ffffffffffffffffffffffffffffffffffffffff163373ffffffffffffffffffffffffffffffffffffffff1614151561134757600080fd5b6007600061135591906122da565b565b6000809054906101000a900473ffffffffffffffffffffffffffffffffffffffff1673ffffffffffffffffffffffffffffffffffffffff163373ffffffffffffffffffffffffffffffffffffffff161415156113b257600080fd5b7f50cd38d01c5f23cfcb182e60017a312dd7aa0c04558056981b614b96ffe7bdd8338383604051808473ffffffffffffffffffffffffffffffffffffffff1673ffffffffffffffffffffffffffffffffffffffff1681526020018060200180602001838103835285818151815260200191508051906020019080838360005b8381101561144c578082015181840152602081019050611431565b50505050905090810190601f1680156114795780820380516001836020036101000a031916815260200191505b50838103825284818151815260200191508051906020019080838360005b838110156114b2578082015181840152602081019050611497565b50505050905090810190601f1680156114df5780820380516001836020036101000a031916815260200191505b509550505050505060405180910390a16006805480600101828161150391906122fe565b9160005260206000209060020201600060408051908101604052808681526020018581525090919091506000820151816000019080519060200190611549929190612330565b506020820151816001019080519060200190611566929190612330565b505050505050565b6115766120db565b61157e6120db565b60046000016004600101818054600181600116156101000203166002900480601f01602080910402602001604051908101604052809291908181526020018280546001816001161561010002031660029004801561161d5780601f106115f25761010080835404028352916020019161161d565b820191906000526020600020905b81548152906001019060200180831161160057829003601f168201915b50505050509150808054600181600116156101000203166002900480601f0160208091040260200160405190810160405280929190818152602001828054600181600116156101000203166002900480156116b95780601f1061168e576101008083540402835291602001916116b9565b820191906000526020600020905b81548152906001019060200180831161169c57829003601f168201915b50505050509050915091509091565b6000809054906101000a900473ffffffffffffffffffffffffffffffffffffffff1673ffffffffffffffffffffffffffffffffffffffff163373ffffffffffffffffffffffffffffffffffffffff1614151561172357600080fd5b60058110151561173257600080fd5b7fab6433bd259d728b0b2bb28f04f1b5557ebe4f348f114e50654023edfd0fccd4338383604051808473ffffffffffffffffffffffffffffffffffffffff1673ffffffffffffffffffffffffffffffffffffffff16815260200180602001838152602001828103825284818151815260200191508051906020019080838360005b838110156117ce5780820151818401526020810190506117b3565b50505050905090810190601f1680156117fb5780820380516001836020036101000a031916815260200191505b5094505050505060405180910390a16007805480600101828161181e91906123b0565b91600052602060002090600202016000604080519081016040528086815260200185600481111561184b57fe5b600481111561185657fe5b8152509091909150600082015181600001908051906020019061187a929190612330565b5060208201518160010160006101000a81548160ff0219169083600481111561189f57fe5b02179055505050505050565b6118b36120db565b6000826007805490501115156118c857600080fd5b6007838154811015156118d757fe5b90600052602060002090600202016000016007848154811015156118f757fe5b906000526020600020906002020160010160009054906101000a900460ff16600481111561192157fe5b818054600181600116156101000203166002900480601f0160208091040260200160405190810160405280929190818152602001828054600181600116156101000203166002900480156119b65780601f1061198b576101008083540402835291602001916119b6565b820191906000526020600020905b81548152906001019060200180831161199957829003601f168201915b5050505050915091509150915091565b6000600680549050905090565b6000809054906101000a900473ffffffffffffffffffffffffffffffffffffffff1673ffffffffffffffffffffffffffffffffffffffff163373ffffffffffffffffffffffffffffffffffffffff16141515611a2e57600080fd5b7f44a2056a15c91e43da5fd64535bb74c912e0e630f931949abd146b4fb1f1a00833600283604051808473ffffffffffffffffffffffffffffffffffffffff1673ffffffffffffffffffffffffffffffffffffffff1681526020018060200180602001838103835285818154600181600116156101000203166002900481526020019150805460018160011615610100020316600290048015611b125780601f10611ae757610100808354040283529160200191611b12565b820191906000526020600020905b815481529060010190602001808311611af557829003601f168201915b5050838103825284818151815260200191508051906020019080838360005b83811015611b4c578082015181840152602081019050611b31565b50505050905090810190601f168015611b795780820380516001836020036101000a031916815260200191505b509550505050505060405180910390a18060029080519060200190611b9f9291906120ef565b5050565b6000809054906101000a900473ffffffffffffffffffffffffffffffffffffffff1673ffffffffffffffffffffffffffffffffffffffff163373ffffffffffffffffffffffffffffffffffffffff16141515611bfe57600080fd5b7fd742b0fa5cb0e51854ace485d17ca8db70fa19942d10ccfc7cbecbb3965f93cd33600460000160046001018585604051808673ffffffffffffffffffffffffffffffffffffffff1673ffffffffffffffffffffffffffffffffffffffff16815260200180602001806020018060200180602001858103855289818154600181600116156101000203166002900481526020019150805460018160011615610100020316600290048015611cf35780601f10611cc857610100808354040283529160200191611cf3565b820191906000526020600020905b815481529060010190602001808311611cd657829003601f168201915b5050858103845288818154600181600116156101000203166002900481526020019150805460018160011615610100020316600290048015611d765780601f10611d4b57610100808354040283529160200191611d76565b820191906000526020600020905b815481529060010190602001808311611d5957829003601f168201915b5050858103835287818151815260200191508051906020019080838360005b83811015611db0578082015181840152602081019050611d95565b50505050905090810190601f168015611ddd5780820380516001836020036101000a031916815260200191505b50858103825286818151815260200191508051906020019080838360005b83811015611e16578082015181840152602081019050611dfb565b50505050905090810190601f168015611e435780820380516001836020036101000a031916815260200191505b50995050505050505050505060405180910390a18160046000019080519060200190611e709291906120ef565b508060046001019080519060200190611e8a9291906120ef565b505050565b611e976120db565b611e9f6120db565b82600680549050111515611eb257600080fd5b600683815481101515611ec157fe5b9060005260206000209060020201600001600684815481101515611ee157fe5b9060005260206000209060020201600101818054600181600116156101000203166002900480601f016020809104026020016040519081016040528092919081815260200182805460018160011615610100020316600290048015611f875780601f10611f5c57610100808354040283529160200191611f87565b820191906000526020600020905b815481529060010190602001808311611f6a57829003601f168201915b50505050509150808054600181600116156101000203166002900480601f0160208091040260200160405190810160405280929190818152602001828054600181600116156101000203166002900480156120235780601f10611ff857610100808354040283529160200191612023565b820191906000526020600020905b81548152906001019060200180831161200657829003601f168201915b5050505050905091509150915091565b61203b6120db565b60018054600181600116156101000203166002900480601f0160208091040260200160405190810160405280929190818152602001828054600181600116156101000203166002900480156120d15780601f106120a6576101008083540402835291602001916120d1565b820191906000526020600020905b8154815290600101906020018083116120b457829003601f168201915b5050505050905090565b602060405190810160405280600081525090565b828054600181600116156101000203166002900490600052602060002090601f016020900481019282601f1061213057805160ff191683800117855561215e565b8280016001018555821561215e579182015b8281111561215d578251825591602001919060010190612142565b5b50905061216b91906123e2565b5090565b50805460008255600202906000526020600020908101906121909190612407565b50565b828054600181600116156101000203166002900490600052602060002090601f016020900481019282601f106121cc5780548555612209565b8280016001018555821561220957600052602060002091601f016020900482015b828111156122085782548255916001019190600101906121ed565b5b50905061221691906123e2565b5090565b50805460018160011615610100020316600290046000825580601f10612240575061225f565b601f01602090049060005260206000209081019061225e91906123e2565b5b50565b81548183558181151161228f5760020281600202836000526020600020918201910161228e9190612446565b5b505050565b8154818355818115116122c1576002028160020283600052602060002091820191016122c09190612407565b5b505050565b602060405190810160405280600081525090565b50805460008255600202906000526020600020908101906122fb9190612446565b50565b81548183558181151161232b5760020281600202836000526020600020918201910161232a9190612407565b5b505050565b828054600181600116156101000203166002900490600052602060002090601f016020900481019282601f1061237157805160ff191683800117855561239f565b8280016001018555821561239f579182015b8281111561239e578251825591602001919060010190612383565b5b5090506123ac91906123e2565b5090565b8154818355818115116123dd576002028160020283600052602060002091820191016123dc9190612446565b5b505050565b61240491905b808211156124005760008160009055506001016123e8565b5090565b90565b61244391905b8082111561243f5760008082016000612426919061221a565b600182016000612436919061221a565b5060020161240d565b5090565b90565b61248691905b808211156124825760008082016000612465919061221a565b6001820160006101000a81549060ff02191690555060020161244c565b5090565b905600a165627a7a72305820f60a8e00f772028e8f13635822db0d54b0169335b3196ffda60d6a5b138715d90029",
  "source": "pragma solidity ^0.4.18;\n\nimport \"./Mortal.sol\";\nimport \"./CVExtender.sol\";\n\n// TODO: zrobi wasny frontend do tego CV\n// TODO: update, eby wygldao prawie jak CV z strony interviewme\n// TODO: frontend ma sie updatowac z kazda zmiana\n// TODO: serialized arrays\n// TODO: przetestuj na testowym blockchainie\n// TODO: submit do nich\n\ncontract MyCV is CVExtender, Mortal {\n   event AddressChanged(address from, string oldAddress, string newAddress);\n   event DescriptionChanged(address from, string oldDescription, string newDescription);\n   event TitleChanged(address from, string oldTitle, string newTitle);\n   event AuthorChanged(address from, string oldName, string oldEmail, string newName, string newEmail);\n   event SkillAdded(address from, string name, uint skillLevel);\n   event ProjectAdded(address from, string name, string description);\n\n   struct PersonalInfo {\n      string name;\n      string email;\n   }\n\n   struct Project {\n      string name;\n      string description;\n   }\n\n   enum SkillLevel {BASIC, MEDIUM, GOOD, VERY_GOOD, EXPERT}\n\n   struct Skill {\n      string name;\n      SkillLevel level;\n   }\n\n   string m_title;\n   string m_description;\n   string m_addressUrl;\n   PersonalInfo m_personalInfo;\n   Project[] m_projects;\n   Skill[] m_skills;\n\n   function MyCV() public {\n      m_title = \"Jerzy Lasyk CV\";\n      m_description = \"I am software developer with over 4 years of professional experience passionate about blockchain development.\";\n      m_personalInfo = PersonalInfo(\"Jerzy Lasyk\", \"jerzylasyk@gmail.com\");\n      m_addressUrl = \"https://github.com/JerzyLa\";\n      m_projects.push(Project(\"SDARS\", \"Satellite radio application for automotive companies like Volvo, Volkswagen\"));\n      m_skills.push(Skill(\"English\", SkillLevel.VERY_GOOD));\n   }\n\n   function getAddress() public view returns(string) {\n      return m_addressUrl;\n   }\n\n   function changeAddress(string addressUrl) public onlyowner {\n      AddressChanged(msg.sender, m_addressUrl, addressUrl);\n      m_addressUrl = addressUrl;\n   }\n\n   function getDescription() public view returns(string) {\n      return m_description;\n   }\n\n   function changeDescription(string description) public onlyowner {\n      DescriptionChanged(msg.sender, m_description, description);\n      m_description = description;\n   }\n\n   function getTitle() public view returns(string) {\n      return m_title;\n   }\n\n   function changeTitle(string title) public onlyowner {\n      TitleChanged(msg.sender, m_title, title);\n      m_title = title;\n   }\n\n   function getAuthor() public view returns(string, string) {\n      return (m_personalInfo.name, m_personalInfo.email);\n   }\n\n   function changeAuthor(string name, string email) public onlyowner {\n      AuthorChanged(msg.sender, m_personalInfo.name, m_personalInfo.email, name, email);\n      m_personalInfo.name = name;\n      m_personalInfo.email = email;\n   }\n\n   function getSkillsCount() public view returns(uint) {\n      return m_skills.length;\n   }\n\n   function getSkill(uint index) public view returns(string, uint) {\n      require(m_skills.length > index);\n      return (m_skills[index].name, uint(m_skills[index].level));\n   }\n\n   function addSkill(string name, uint level) public onlyowner {\n      require(level < 5);\n      SkillAdded(msg.sender, name, level);\n      m_skills.push(Skill(name, SkillLevel(level)));\n   }\n\n   function removeSkill(uint index) public onlyowner {\n      require(m_skills.length > index);\n      for (uint i = index; i < m_skills.length-1; i++) {\n          m_skills[i] = m_skills[i+1];\n      }\n      delete m_skills[m_skills.length-1];\n      m_skills.length--;\n   }\n\n   function removeAllSkills() public onlyowner {\n      delete m_skills;\n   }\n\n   function getProjectsCount() public view returns(uint) {\n      return m_projects.length;\n   }\n\n   function getProject(uint index) public view returns(string, string) {\n      require(m_projects.length > index);\n      return (m_projects[index].name, m_projects[index].description);\n   }\n\n   function addProject(string name, string description) public onlyowner {\n      ProjectAdded(msg.sender, name, description);\n      m_projects.push(Project(name, description));\n   }\n\n   function removeProject(uint index) public onlyowner {\n      require(m_projects.length > index);\n      for (uint i = index; i < m_projects.length-1; i++) {\n          m_projects[i] = m_projects[i+1];\n      }\n      delete m_projects[m_projects.length-1];\n      m_projects.length--;\n   }\n\n   function removeAllProjectes() public onlyowner {\n      delete m_projects;\n   }\n}\n",
  "sourcePath": "/home/jerzy/Desktop/Etherum-projects/truffle-react-cv/contracts/MyCV.sol",
  "compiler": {
    "name": "solc",
    "version": "0.4.18+commit.9cf6e910.Emscripten.clang"
  },
  "schemaVersion": "1.0.1",
  "updatedAt": "2018-03-18T14:01:09.451Z"
}