{
  "contractName": "MyWallet",
  "abi": [
    {
      "constant": false,
      "inputs": [
        {
          "name": "to",
          "type": "address"
        },
        {
          "name": "amount",
          "type": "uint256"
        },
        {
          "name": "reason",
          "type": "string"
        }
      ],
      "name": "spendMoneyOn",
      "outputs": [
        {
          "name": "",
          "type": "uint256"
        }
      ],
      "payable": false,
      "stateMutability": "nonpayable",
      "type": "function"
    },
    {
      "constant": false,
      "inputs": [],
      "name": "kill",
      "outputs": [],
      "payable": false,
      "stateMutability": "nonpayable",
      "type": "function"
    },
    {
      "constant": false,
      "inputs": [
        {
          "name": "proposalId",
          "type": "uint256"
        }
      ],
      "name": "confirmProposal",
      "outputs": [
        {
          "name": "",
          "type": "bool"
        }
      ],
      "payable": false,
      "stateMutability": "nonpayable",
      "type": "function"
    },
    {
      "payable": true,
      "stateMutability": "payable",
      "type": "fallback"
    },
    {
      "anonymous": false,
      "inputs": [
        {
          "indexed": true,
          "name": "from",
          "type": "address"
        },
        {
          "indexed": false,
          "name": "amount",
          "type": "uint256"
        }
      ],
      "name": "ReceivedFunds",
      "type": "event"
    },
    {
      "anonymous": false,
      "inputs": [
        {
          "indexed": false,
          "name": "id",
          "type": "uint256"
        },
        {
          "indexed": false,
          "name": "from",
          "type": "address"
        },
        {
          "indexed": false,
          "name": "to",
          "type": "address"
        },
        {
          "indexed": false,
          "name": "reason",
          "type": "string"
        }
      ],
      "name": "ProposalReceived",
      "type": "event"
    }
  ],
  "bytecode": "0x6060604052336000806101000a81548173ffffffffffffffffffffffffffffffffffffffff021916908373ffffffffffffffffffffffffffffffffffffffff160217905550610788806100536000396000f300606060405260043610610057576000357c0100000000000000000000000000000000000000000000000000000000900463ffffffff168063192997e7146100b157806341c0e1b51461014a578063f4a4f4d21461015f575b60003411156100af573373ffffffffffffffffffffffffffffffffffffffff167f5741979df5f3e491501da74d3b0a83dd2496ab1f34929865b3e190a8ad75859a346040518082815260200191505060405180910390a25b005b34156100bc57600080fd5b610134600480803573ffffffffffffffffffffffffffffffffffffffff1690602001909190803590602001909190803590602001908201803590602001908080601f0160208091040260200160405190810160405280939291908181526020018383808284378201915050505050509190505061019a565b6040518082815260200191505060405180910390f35b341561015557600080fd5b61015d6104aa565b005b341561016a57600080fd5b610180600480803590602001909190505061053b565b604051808215151515815260200191505060405180910390f35b60003373ffffffffffffffffffffffffffffffffffffffff166000809054906101000a900473ffffffffffffffffffffffffffffffffffffffff1673ffffffffffffffffffffffffffffffffffffffff161415610236578373ffffffffffffffffffffffffffffffffffffffff166108fc849081150290604051600060405180830381858888f19350505050151561023157600080fd5b6104a2565b6001600081546001019190508190555060a0604051908101604052803373ffffffffffffffffffffffffffffffffffffffff1681526020018573ffffffffffffffffffffffffffffffffffffffff1681526020018481526020018381526020016000151581525060026000600154815260200190815260200160002060008201518160000160006101000a81548173ffffffffffffffffffffffffffffffffffffffff021916908373ffffffffffffffffffffffffffffffffffffffff16021790555060208201518160010160006101000a81548173ffffffffffffffffffffffffffffffffffffffff021916908373ffffffffffffffffffffffffffffffffffffffff1602179055506040820151816002015560608201518160030190805190602001906103669291906106b7565b5060808201518160040160006101000a81548160ff0219169083151502179055509050507f0fe0b121e70559cccfbd1c482aff85080b8fa99dce3ed5c8c139c8706760723d600154338685604051808581526020018473ffffffffffffffffffffffffffffffffffffffff1673ffffffffffffffffffffffffffffffffffffffff1681526020018373ffffffffffffffffffffffffffffffffffffffff1673ffffffffffffffffffffffffffffffffffffffff16815260200180602001828103825283818151815260200191508051906020019080838360005b8381101561045b578082015181840152602081019050610440565b50505050905090810190601f1680156104885780820380516001836020036101000a031916815260200191505b509550505050505060405180910390a160015490506104a3565b5b9392505050565b6000809054906101000a900473ffffffffffffffffffffffffffffffffffffffff1673ffffffffffffffffffffffffffffffffffffffff163373ffffffffffffffffffffffffffffffffffffffff161415610539576000809054906101000a900473ffffffffffffffffffffffffffffffffffffffff1673ffffffffffffffffffffffffffffffffffffffff16ff5b565b6000803373ffffffffffffffffffffffffffffffffffffffff166000809054906101000a900473ffffffffffffffffffffffffffffffffffffffff1673ffffffffffffffffffffffffffffffffffffffff1614151561059957600080fd5b600260008481526020019081526020016000209050600073ffffffffffffffffffffffffffffffffffffffff168160000160009054906101000a900473ffffffffffffffffffffffffffffffffffffffff1673ffffffffffffffffffffffffffffffffffffffff161415801561061e57508060040160009054906101000a900460ff16155b156106ac578060010160009054906101000a900473ffffffffffffffffffffffffffffffffffffffff1673ffffffffffffffffffffffffffffffffffffffff166108fc82600201549081150290604051600060405180830381858888f19350505050156106ab5760018160040160006101000a81548160ff021916908315150217905550600191506106b1565b5b600091505b50919050565b828054600181600116156101000203166002900490600052602060002090601f016020900481019282601f106106f857805160ff1916838001178555610726565b82800160010185558215610726579182015b8281111561072557825182559160200191906001019061070a565b5b5090506107339190610737565b5090565b61075991905b8082111561075557600081600090555060010161073d565b5090565b905600a165627a7a72305820edcf84ca3119fad7efdcf0723addd5b752d3665a25862270da9f79f607d885cc0029",
  "source": "pragma solidity ^0.4.17;\n\nimport \"./Mortal.sol\";\n\n\ncontract MyWallet is Mortal {\n    event ReceivedFunds(address indexed from, uint256 amount);\n    event ProposalReceived(uint id, address from, address to, string reason);\n\n    struct Proposal {\n        address from;\n        address to;\n        uint256 amount;\n        string reason;\n        bool isSent;\n    }\n\n    uint m_proposalCounter;\n    mapping(uint => Proposal) m_proposals;\n\n    function() public payable {\n        if (msg.value > 0) {\n            ReceivedFunds(msg.sender, msg.value);\n        }\n    }\n\n    function spendMoneyOn(address to, uint256 amount, string reason) public returns(uint256) {\n        if (owner == msg.sender) {\n           to.transfer(amount);\n        } else {\n            ++m_proposalCounter;\n            m_proposals[m_proposalCounter] = Proposal(msg.sender, to, amount, reason, false);\n            ProposalReceived(m_proposalCounter, msg.sender, to, reason);\n            return m_proposalCounter;\n        }\n    }\n\n    function confirmProposal(uint proposalId) public onlyowner returns(bool) {\n        Proposal proposal = m_proposals[proposalId];\n        if (proposal.from != address(0) && !proposal.isSent) {\n            if (proposal.to.send(proposal.amount)) {\n                proposal.isSent = true;\n                return true;\n            }\n        }\n\n        return false;\n    }\n}\n",
  "sourcePath": "/home/jerzy/Desktop/Etherum-projects/truffle-mywallet/contracts/MyWallet.sol",
  "compiler": {
    "name": "solc",
    "version": "0.4.18+commit.9cf6e910.Emscripten.clang"
  },
  "schemaVersion": "1.0.1",
  "updatedAt": "2018-01-24T07:49:55.540Z"
}