{
  "contractName": "mortal",
  "abi": [
    {
      "constant": false,
      "inputs": [],
      "name": "kill",
      "outputs": [],
      "payable": false,
      "stateMutability": "nonpayable",
      "type": "function"
    }
  ],
  "bytecode": "0x6060604052336000806101000a81548173ffffffffffffffffffffffffffffffffffffffff021916908373ffffffffffffffffffffffffffffffffffffffff160217905550610112806100536000396000f300606060405260043610603f576000357c0100000000000000000000000000000000000000000000000000000000900463ffffffff16806341c0e1b5146044575b600080fd5b3415604e57600080fd5b60546056565b005b6000809054906101000a900473ffffffffffffffffffffffffffffffffffffffff1673ffffffffffffffffffffffffffffffffffffffff163373ffffffffffffffffffffffffffffffffffffffff16141560e4576000809054906101000a900473ffffffffffffffffffffffffffffffffffffffff1673ffffffffffffffffffffffffffffffffffffffff16ff5b5600a165627a7a723058204eb6faa713194faf1a450030d4b0dae26efa64c1bfff1b66719f346ff900c2280029",
  "source": "pragma solidity ^0.4.18;\n\nimport \"./CVExtender.sol\";\n\ncontract owned {\n    address owner;\n\n    modifier onlyowner() {\n        require(msg.sender == owner);\n        _;\n    }\n\n    function owned() public {\n        owner = msg.sender;\n    }\n}\n\ncontract mortal is owned {\n    function kill() public {\n        if (msg.sender == owner)\n        selfdestruct(owner);\n    }\n}\n\n// TODO: skompilować\n// TODO: napisać testy\n// TODO: przetestować z ich kontraktem i webfrontem\n// TODO: zrobić prosty front end do tego CV\n// TODO: zrobić edycyjną część frontendu\n// TODO: update, żeby wyglądało prawie jak CV z strony interviewme\n\ncontract MyCV is CVExtender, mortal {\n   event AddressChanged(address from, string oldAddress, string newAddress);\n   event DescriptionChanged(address from, string oldDescription, string newDescription);\n   event TitleChanged(address from, string oldTitle, string newTitle);\n   event AuthorChanged(address from, string oldName, string oldEmail, string newName, string newEmail);\n\n   struct PersonalInfo {\n      string name;\n      string email;\n   }\n\n   struct SocialMedia {\n      string addressUrl;\n      string githubUrl;\n      string linkedInUrl;\n   }\n\n   string m_title;\n   string m_description;\n   PersonalInfo m_personalInfo;\n   SocialMedia m_socialMedia;\n\n   function MyCV() public {\n      m_title = \"Jerzy Lasyk CV\";\n      m_description = \"I am software developer with over 4 years of professional experience passionate about blockchain development.\";\n      m_personalInfo = PersonalInfo(\"Jerzy Lasyk\", \"jerzylasyk@gmail.com\");\n      m_socialMedia = SocialMedia(\"https://github.com/JerzyLa\", \"\", \"\");\n   }\n\n   function getAddress() public view returns(string) {\n      return m_socialMedia.addressUrl;\n   }\n\n   function changeAddress(string addressUrl) public onlyowner {\n      AddressChanged(msg.sender, m_socialMedia.addressUrl, addressUrl);\n      m_socialMedia.addressUrl = addressUrl;\n   }\n\n   function getDescription() public view returns(string) {\n      return m_description;\n   }\n\n   function changeDescription(string description) public onlyowner {\n      DescriptionChanged(msg.sender, m_description, description);\n      m_description = description;\n   }\n\n   function getTitle() public view returns(string) {\n      return m_title;\n   }\n\n   function changeTitle(string title) public onlyowner {\n      TitleChanged(msg.sender, m_title, title);\n      m_title = title;\n   }\n\n   function getAuthor() public view returns(string, string) {\n      return (m_personalInfo.name, m_personalInfo.email);\n   }\n\n   function changeAuthor(string name, string email) public onlyowner {\n      AuthorChanged(msg.sender, m_personalInfo.name, m_personalInfo.email, name, email);\n      m_personalInfo.name = name;\n      m_personalInfo.email = email;\n   }\n}\n",
  "sourcePath": "/home/jerzy/Desktop/Etherum-projects/truffle-cv/contracts/MyCV.sol",
  "compiler": {
    "name": "solc",
    "version": "0.4.18+commit.9cf6e910.Emscripten.clang"
  },
  "schemaVersion": "1.0.1",
  "updatedAt": "2018-01-28T12:26:33.757Z"
}