{
  "contractName": "MyCV",
  "abi": [
    {
      "constant": true,
      "inputs": [],
      "name": "getDescription",
      "outputs": [
        {
          "name": "",
          "type": "string"
        }
      ],
      "payable": false,
      "stateMutability": "view",
      "type": "function"
    },
    {
      "constant": false,
      "inputs": [
        {
          "name": "title",
          "type": "string"
        }
      ],
      "name": "changeTitle",
      "outputs": [],
      "payable": false,
      "stateMutability": "nonpayable",
      "type": "function"
    },
    {
      "constant": true,
      "inputs": [],
      "name": "getAddress",
      "outputs": [
        {
          "name": "",
          "type": "string"
        }
      ],
      "payable": false,
      "stateMutability": "view",
      "type": "function"
    },
    {
      "constant": false,
      "inputs": [],
      "name": "kill",
      "outputs": [],
      "payable": false,
      "stateMutability": "nonpayable",
      "type": "function"
    },
    {
      "constant": false,
      "inputs": [
        {
          "name": "addressUrl",
          "type": "string"
        }
      ],
      "name": "changeAddress",
      "outputs": [],
      "payable": false,
      "stateMutability": "nonpayable",
      "type": "function"
    },
    {
      "constant": true,
      "inputs": [],
      "name": "elementsAreSet",
      "outputs": [
        {
          "name": "",
          "type": "bool"
        }
      ],
      "payable": false,
      "stateMutability": "view",
      "type": "function"
    },
    {
      "constant": true,
      "inputs": [],
      "name": "getAuthor",
      "outputs": [
        {
          "name": "",
          "type": "string"
        },
        {
          "name": "",
          "type": "string"
        }
      ],
      "payable": false,
      "stateMutability": "view",
      "type": "function"
    },
    {
      "constant": false,
      "inputs": [
        {
          "name": "description",
          "type": "string"
        }
      ],
      "name": "changeDescription",
      "outputs": [],
      "payable": false,
      "stateMutability": "nonpayable",
      "type": "function"
    },
    {
      "constant": false,
      "inputs": [
        {
          "name": "name",
          "type": "string"
        },
        {
          "name": "email",
          "type": "string"
        }
      ],
      "name": "changeAuthor",
      "outputs": [],
      "payable": false,
      "stateMutability": "nonpayable",
      "type": "function"
    },
    {
      "constant": true,
      "inputs": [],
      "name": "getTitle",
      "outputs": [
        {
          "name": "",
          "type": "string"
        }
      ],
      "payable": false,
      "stateMutability": "view",
      "type": "function"
    },
    {
      "inputs": [],
      "payable": false,
      "stateMutability": "nonpayable",
      "type": "constructor"
    },
    {
      "anonymous": false,
      "inputs": [
        {
          "indexed": false,
          "name": "from",
          "type": "address"
        },
        {
          "indexed": false,
          "name": "oldAddress",
          "type": "string"
        },
        {
          "indexed": false,
          "name": "newAddress",
          "type": "string"
        }
      ],
      "name": "AddressChanged",
      "type": "event"
    },
    {
      "anonymous": false,
      "inputs": [
        {
          "indexed": false,
          "name": "from",
          "type": "address"
        },
        {
          "indexed": false,
          "name": "oldDescription",
          "type": "string"
        },
        {
          "indexed": false,
          "name": "newDescription",
          "type": "string"
        }
      ],
      "name": "DescriptionChanged",
      "type": "event"
    },
    {
      "anonymous": false,
      "inputs": [
        {
          "indexed": false,
          "name": "from",
          "type": "address"
        },
        {
          "indexed": false,
          "name": "oldTitle",
          "type": "string"
        },
        {
          "indexed": false,
          "name": "newTitle",
          "type": "string"
        }
      ],
      "name": "TitleChanged",
      "type": "event"
    },
    {
      "anonymous": false,
      "inputs": [
        {
          "indexed": false,
          "name": "from",
          "type": "address"
        },
        {
          "indexed": false,
          "name": "oldName",
          "type": "string"
        },
        {
          "indexed": false,
          "name": "oldEmail",
          "type": "string"
        },
        {
          "indexed": false,
          "name": "newName",
          "type": "string"
        },
        {
          "indexed": false,
          "name": "newEmail",
          "type": "string"
        }
      ],
      "name": "AuthorChanged",
      "type": "event"
    }
  ],
  "bytecode": "0x606060405234156200001057600080fd5b336000806101000a81548173ffffffffffffffffffffffffffffffffffffffff021916908373ffffffffffffffffffffffffffffffffffffffff1602179055506040805190810160405280600e81526020017f4a65727a79204c6173796b204356000000000000000000000000000000000000815250600190805190602001906200009d929190620002fa565b5060a060405190810160405280606d81526020017f4920616d20736f66747761726520646576656c6f7065722077697468206f766581526020017f722034207965617273206f662070726f66657373696f6e616c2065787065726981526020017f656e63652070617373696f6e6174652061626f757420626c6f636b636861696e81526020017f20646576656c6f706d656e742e00000000000000000000000000000000000000815250600290805190602001906200015e929190620002fa565b5060408051908101604052806040805190810160405280600b81526020017f4a65727a79204c6173796b00000000000000000000000000000000000000000081525081526020016040805190810160405280601481526020017f6a65727a796c6173796b40676d61696c2e636f6d00000000000000000000000081525081525060036000820151816000019080519060200190620001fe92919062000381565b5060208201518160010190805190602001906200021d92919062000381565b509050506060604051908101604052806040805190810160405280601a81526020017f68747470733a2f2f6769746875622e636f6d2f4a65727a794c61000000000000815250815260200160206040519081016040528060008152508152602001602060405190810160405280600081525081525060056000820151816000019080519060200190620002b292919062000381565b506020820151816001019080519060200190620002d192919062000381565b506040820151816002019080519060200190620002f092919062000381565b5090505062000430565b828054600181600116156101000203166002900490600052602060002090601f016020900481019282601f106200033d57805160ff19168380011785556200036e565b828001600101855582156200036e579182015b828111156200036d57825182559160200191906001019062000350565b5b5090506200037d919062000408565b5090565b828054600181600116156101000203166002900490600052602060002090601f016020900481019282601f10620003c457805160ff1916838001178555620003f5565b82800160010185558215620003f5579182015b82811115620003f4578251825591602001919060010190620003d7565b5b50905062000404919062000408565b5090565b6200042d91905b80821115620004295760008160009055506001016200040f565b5090565b90565b61133b80620004406000396000f3006060604052600436106100a4576000357c0100000000000000000000000000000000000000000000000000000000900463ffffffff1680631a092541146100a95780632dbe07c71461013757806338cc48311461019457806341c0e1b5146102225780635f2443f3146102375780637e9aef5314610294578063a5faa125146102c1578063e6120413146103bb578063efc98d2814610418578063ff3c1a8f146104b8575b600080fd5b34156100b457600080fd5b6100bc610546565b6040518080602001828103825283818151815260200191508051906020019080838360005b838110156100fc5780820151818401526020810190506100e1565b50505050905090810190601f1680156101295780820380516001836020036101000a031916815260200191505b509250505060405180910390f35b341561014257600080fd5b610192600480803590602001908201803590602001908080601f016020809104026020016040519081016040528093929190818152602001838380828437820191505050505050919050506105ee565b005b341561019f57600080fd5b6101a76107be565b6040518080602001828103825283818151815260200191508051906020019080838360005b838110156101e75780820151818401526020810190506101cc565b50505050905090810190601f1680156102145780820380516001836020036101000a031916815260200191505b509250505060405180910390f35b341561022d57600080fd5b610235610869565b005b341561024257600080fd5b610292600480803590602001908201803590602001908080601f016020809104026020016040519081016040528093929190818152602001838380828437820191505050505050919050506108fa565b005b341561029f57600080fd5b6102a7610ad0565b604051808215151515815260200191505060405180910390f35b34156102cc57600080fd5b6102d4610b84565b604051808060200180602001838103835285818151815260200191508051906020019080838360005b838110156103185780820151818401526020810190506102fd565b50505050905090810190601f1680156103455780820380516001836020036101000a031916815260200191505b50838103825284818151815260200191508051906020019080838360005b8381101561037e578082015181840152602081019050610363565b50505050905090810190601f1680156103ab5780820380516001836020036101000a031916815260200191505b5094505050505060405180910390f35b34156103c657600080fd5b610416600480803590602001908201803590602001908080601f01602080910402602001604051908101604052809392919081815260200183838082843782019150505050505091905050610cde565b005b341561042357600080fd5b6104b6600480803590602001908201803590602001908080601f0160208091040260200160405190810160405280939291908181526020018383808284378201915050505050509190803590602001908201803590602001908080601f01602080910402602001604051908101604052809392919081815260200183838082843782019150505050505091905050610eae565b005b34156104c357600080fd5b6104cb61119a565b6040518080602001828103825283818151815260200191508051906020019080838360005b8381101561050b5780820151818401526020810190506104f0565b50505050905090810190601f1680156105385780820380516001836020036101000a031916815260200191505b509250505060405180910390f35b61054e611242565b60028054600181600116156101000203166002900480601f0160208091040260200160405190810160405280929190818152602001828054600181600116156101000203166002900480156105e45780601f106105b9576101008083540402835291602001916105e4565b820191906000526020600020905b8154815290600101906020018083116105c757829003601f168201915b5050505050905090565b6000809054906101000a900473ffffffffffffffffffffffffffffffffffffffff1673ffffffffffffffffffffffffffffffffffffffff163373ffffffffffffffffffffffffffffffffffffffff1614151561064957600080fd5b7f305379c6f8f5ad8642ce5b6f145f08e0dad70d680b2e922429459174065bba2933600183604051808473ffffffffffffffffffffffffffffffffffffffff1673ffffffffffffffffffffffffffffffffffffffff168152602001806020018060200183810383528581815460018160011615610100020316600290048152602001915080546001816001161561010002031660029004801561072d5780601f106107025761010080835404028352916020019161072d565b820191906000526020600020905b81548152906001019060200180831161071057829003601f168201915b5050838103825284818151815260200191508051906020019080838360005b8381101561076757808201518184015260208101905061074c565b50505050905090810190601f1680156107945780820380516001836020036101000a031916815260200191505b509550505050505060405180910390a180600190805190602001906107ba929190611256565b5050565b6107c6611242565b60056000018054600181600116156101000203166002900480601f01602080910402602001604051908101604052809291908181526020018280546001816001161561010002031660029004801561085f5780601f106108345761010080835404028352916020019161085f565b820191906000526020600020905b81548152906001019060200180831161084257829003601f168201915b5050505050905090565b6000809054906101000a900473ffffffffffffffffffffffffffffffffffffffff1673ffffffffffffffffffffffffffffffffffffffff163373ffffffffffffffffffffffffffffffffffffffff1614156108f8576000809054906101000a900473ffffffffffffffffffffffffffffffffffffffff1673ffffffffffffffffffffffffffffffffffffffff16ff5b565b6000809054906101000a900473ffffffffffffffffffffffffffffffffffffffff1673ffffffffffffffffffffffffffffffffffffffff163373ffffffffffffffffffffffffffffffffffffffff1614151561095557600080fd5b7ffa615365cef3fc4a9d338c6f76f9bc5fb5c7dd233d706a328c336cfb33d0469233600560000183604051808473ffffffffffffffffffffffffffffffffffffffff1673ffffffffffffffffffffffffffffffffffffffff1681526020018060200180602001838103835285818154600181600116156101000203166002900481526020019150805460018160011615610100020316600290048015610a3c5780601f10610a1157610100808354040283529160200191610a3c565b820191906000526020600020905b815481529060010190602001808311610a1f57829003601f168201915b5050838103825284818151815260200191508051906020019080838360005b83811015610a76578082015181840152602081019050610a5b565b50505050905090810190601f168015610aa35780820380516001836020036101000a031916815260200191505b509550505050505060405180910390a18060056000019080519060200190610acc929190611256565b5050565b6000610ada6112d6565b610ae2611242565b610aea611242565b610af2610546565b9250600083511415610b075760009350610b7e565b610b0f61119a565b9250600083511415610b245760009350610b7e565b610b2c610b84565b91509150819250600083511415610b465760009350610b7e565b809250600083511415610b5c5760009350610b7e565b610b646107be565b9250600083511415610b795760009350610b7e565b600193505b50505090565b610b8c611242565b610b94611242565b60036000016003600101818054600181600116156101000203166002900480601f016020809104026020016040519081016040528092919081815260200182805460018160011615610100020316600290048015610c335780601f10610c0857610100808354040283529160200191610c33565b820191906000526020600020905b815481529060010190602001808311610c1657829003601f168201915b50505050509150808054600181600116156101000203166002900480601f016020809104026020016040519081016040528092919081815260200182805460018160011615610100020316600290048015610ccf5780601f10610ca457610100808354040283529160200191610ccf565b820191906000526020600020905b815481529060010190602001808311610cb257829003601f168201915b50505050509050915091509091565b6000809054906101000a900473ffffffffffffffffffffffffffffffffffffffff1673ffffffffffffffffffffffffffffffffffffffff163373ffffffffffffffffffffffffffffffffffffffff16141515610d3957600080fd5b7f44a2056a15c91e43da5fd64535bb74c912e0e630f931949abd146b4fb1f1a00833600283604051808473ffffffffffffffffffffffffffffffffffffffff1673ffffffffffffffffffffffffffffffffffffffff1681526020018060200180602001838103835285818154600181600116156101000203166002900481526020019150805460018160011615610100020316600290048015610e1d5780601f10610df257610100808354040283529160200191610e1d565b820191906000526020600020905b815481529060010190602001808311610e0057829003601f168201915b5050838103825284818151815260200191508051906020019080838360005b83811015610e57578082015181840152602081019050610e3c565b50505050905090810190601f168015610e845780820380516001836020036101000a031916815260200191505b509550505050505060405180910390a18060029080519060200190610eaa929190611256565b5050565b6000809054906101000a900473ffffffffffffffffffffffffffffffffffffffff1673ffffffffffffffffffffffffffffffffffffffff163373ffffffffffffffffffffffffffffffffffffffff16141515610f0957600080fd5b7fd742b0fa5cb0e51854ace485d17ca8db70fa19942d10ccfc7cbecbb3965f93cd33600360000160036001018585604051808673ffffffffffffffffffffffffffffffffffffffff1673ffffffffffffffffffffffffffffffffffffffff16815260200180602001806020018060200180602001858103855289818154600181600116156101000203166002900481526020019150805460018160011615610100020316600290048015610ffe5780601f10610fd357610100808354040283529160200191610ffe565b820191906000526020600020905b815481529060010190602001808311610fe157829003601f168201915b50508581038452888181546001816001161561010002031660029004815260200191508054600181600116156101000203166002900480156110815780601f1061105657610100808354040283529160200191611081565b820191906000526020600020905b81548152906001019060200180831161106457829003601f168201915b5050858103835287818151815260200191508051906020019080838360005b838110156110bb5780820151818401526020810190506110a0565b50505050905090810190601f1680156110e85780820380516001836020036101000a031916815260200191505b50858103825286818151815260200191508051906020019080838360005b83811015611121578082015181840152602081019050611106565b50505050905090810190601f16801561114e5780820380516001836020036101000a031916815260200191505b50995050505050505050505060405180910390a1816003600001908051906020019061117b929190611256565b508060036001019080519060200190611195929190611256565b505050565b6111a2611242565b60018054600181600116156101000203166002900480601f0160208091040260200160405190810160405280929190818152602001828054600181600116156101000203166002900480156112385780601f1061120d57610100808354040283529160200191611238565b820191906000526020600020905b81548152906001019060200180831161121b57829003601f168201915b5050505050905090565b602060405190810160405280600081525090565b828054600181600116156101000203166002900490600052602060002090601f016020900481019282601f1061129757805160ff19168380011785556112c5565b828001600101855582156112c5579182015b828111156112c45782518255916020019190600101906112a9565b5b5090506112d291906112ea565b5090565b602060405190810160405280600081525090565b61130c91905b808211156113085760008160009055506001016112f0565b5090565b905600a165627a7a723058205215f54e06e67efb2baf65421e2c32b0fda6b109977e9e44fe1f1dea0bb7ca880029",
  "source": "pragma solidity ^0.4.18;\n\nimport \"./Mortal.sol\";\nimport \"./CVExtender.sol\";\n\n// TODO: napisać testy\n// TODO: przetestować z ich kontraktem i webfrontem\n// TODO: zrobić prosty front end do tego CV\n// TODO: zrobić edycyjną część frontendu\n// TODO: update, żeby wyglądało prawie jak CV z strony interviewme\n\ncontract MyCV is CVExtender, Mortal {\n   event AddressChanged(address from, string oldAddress, string newAddress);\n   event DescriptionChanged(address from, string oldDescription, string newDescription);\n   event TitleChanged(address from, string oldTitle, string newTitle);\n   event AuthorChanged(address from, string oldName, string oldEmail, string newName, string newEmail);\n\n   struct PersonalInfo {\n      string name;\n      string email;\n   }\n\n   struct SocialMedia {\n      string addressUrl;\n      string githubUrl;\n      string linkedInUrl;\n   }\n\n   string m_title;\n   string m_description;\n   PersonalInfo m_personalInfo;\n   SocialMedia m_socialMedia;\n\n   function MyCV() public {\n      m_title = \"Jerzy Lasyk CV\";\n      m_description = \"I am software developer with over 4 years of professional experience passionate about blockchain development.\";\n      m_personalInfo = PersonalInfo(\"Jerzy Lasyk\", \"jerzylasyk@gmail.com\");\n      m_socialMedia = SocialMedia(\"https://github.com/JerzyLa\", \"\", \"\");\n   }\n\n   function getAddress() public view returns(string) {\n      return m_socialMedia.addressUrl;\n   }\n\n   function changeAddress(string addressUrl) public onlyowner {\n      AddressChanged(msg.sender, m_socialMedia.addressUrl, addressUrl);\n      m_socialMedia.addressUrl = addressUrl;\n   }\n\n   function getDescription() public view returns(string) {\n      return m_description;\n   }\n\n   function changeDescription(string description) public onlyowner {\n      DescriptionChanged(msg.sender, m_description, description);\n      m_description = description;\n   }\n\n   function getTitle() public view returns(string) {\n      return m_title;\n   }\n\n   function changeTitle(string title) public onlyowner {\n      TitleChanged(msg.sender, m_title, title);\n      m_title = title;\n   }\n\n   function getAuthor() public view returns(string, string) {\n      return (m_personalInfo.name, m_personalInfo.email);\n   }\n\n   function changeAuthor(string name, string email) public onlyowner {\n      AuthorChanged(msg.sender, m_personalInfo.name, m_personalInfo.email, name, email);\n      m_personalInfo.name = name;\n      m_personalInfo.email = email;\n   }\n}\n",
  "sourcePath": "/home/jerzy/Desktop/Etherum-projects/truffle-cv/contracts/MyCV.sol",
  "compiler": {
    "name": "solc",
    "version": "0.4.18+commit.9cf6e910.Emscripten.clang"
  },
  "schemaVersion": "1.0.1",
  "updatedAt": "2018-01-28T12:29:57.348Z"
}